:100000000C942A000C943F000C943F000C943F0089
:100010000C943F000C943F000C943F000C943F0064
:100020000C943F000C943F000C943F000C943F0054
:100030000C943F000C943F000C943F000C943F0044
:100040000C943F000C943F000C943F000C943F0034
:100050000C943F0011241FBECFE5D8E0DEBFCDBF1A
:1000600010E0A0E6B0E0EEECF1E002C005900D92E9
:10007000A03EB107D9F70E9459000C94E5000C94FA
:10008000000010BC83E389B988E18AB986E880BDA5
:1000900008955D9BFECF8CB90895CF93DF93EC015B
:1000A0008991882319F00E944900FACFDF91CF91FE
:1000B0000895B89A0E9441002FEF84E39CE02150FC
:1000C00080409040E1F700C0000080E690E00E9490
:1000D0004D0085E690E00E944D0080E990E00E948E
:1000E0004D008CEA90E00E944D0084EB90E00E946D
:1000F0004D0082E690E00E944D0089EB90E00E9466
:100100004D0080EC90E00E944D0082E690E00E945D
:100110004D0085E690E00E944D0082E690E00E944E
:100120004D00C0E0D0E0FF24F39484E6C82ED12C2B
:100130000AE010E088B38F2588BB83EC90E00E9432
:100140004D00CE01B6010E94D100CB01B8010E9442
:10015000D100805D0E944900CE01B8010E94D1000B
:10016000E82ECB01B8010E94D100805D0E944900B9
:1001700080E38E0D0E94490082E690E00E944D00CF
:100180002196C83E23E0D20710F0C0E0D0E08FEF08
:1001900099E628E1815090402040E1F700C000003E
:1001A000C9CFAA1BBB1B51E107C0AA1FBB1FA617C3
:1001B000B70710F0A61BB70B881F991F5A95A9F710
:0E01C00080959095BC01CD010895F894FFCF75
:1001CE000D0A0D0A003D3D3D3D3D3D3D3D3D3D3D54
:1001DE003D3D3D3D3D3D3D3D3D3D3D3D3D3D3D3D41
:1001EE003D3D3D3D3D3D3D3D3D3D3D3D3D0D0A00D1
:1001FE0041546D65676133322053696D706C6520B3
:10020E005541525420546573740D0A00465F435095
:10021E00553A2000384D487A00554252523A200045
:10022E003F3F0048656C6C6F2066726F6D204154C5
:10023E006D65676133322120436F756E743A20000D
:00000001FF
