:100000000C9450000C94A1050C946D000C946D00A0
:100010000C946D000C946D000C946D000C946D00AC
:100020000C946D000C946D000C943E060C94030629
:100030000C946D000C946F000C946D000C946D008A
:100040000C946D000C9478050C946D000C946D006C
:100050000C946D0050075207540756075B07600762
:1000600068077F098D0996099D09AB09B209C00986
:10007000CD09084AD73B3BCE016E84BCBFFDC12FE2
:100080003D6C74319ABD56833DDA3D00C77F11BE89
:10009000D9E4BB4C3E916BAAAABE000000803F0091
:1000A00011241FBECFE5D8E0DEBFCDBF10E0A0E633
:1000B000B0E0E0E6F2E202C005900D92A836B1078A
:1000C000D9F721E0A8E6B0E001C01D92AD35B20736
:1000D000E1F70E94E1000C942E110C9400001F9295
:1000E0000F920FB60F9211248F938CB180937000F2
:1000F00081E0809371008F910F900FBE0F901F9041
:100100001895F8940E94F600579A78940E947B07FD
:1001100086E00E94630A2FEF83EC99E02150804033
:100120009040E1F700C000000E94800786E00C9438
:10013000730A0F931F9380916C0090916D00A091B2
:100140006E00B0916F000196A11DB11D80936C00EF
:1001500090936D00A0936E00B0936F004091680083
:100160005091690060916A0070916B008C019D0153
:10017000041B150B260B370BB901A801413157425F
:1001800061057105D8F08093680090936900A09391
:100190006A00B0936B000E949C0486E00E94630A90
:1001A0002FEF30E782E0215030408040E1F700C07F
:1001B000000086E01F910F910C94730A1F910F911C
:1001C00008950E94810080917100882331F010927F
:1001D0007100809170000E94F3030E9499008FE9E2
:1001E0009FE00197F1F700C00000EDCF0E943807B3
:1001F0000E9465080E94B7060E94F40B2FEF81EE63
:1002000094E0215080409040E1F700C000000E943F
:10021000990A2FEF81EE94E0215080409040E1F761
:1002200000C000000E94280C2FEF81EE94E02150C6
:1002300080409040E1F700C000000E94E4070E9467
:10024000BA0C0E9476070E94540AE6E7F0E010829A
:1002500011821282138214821582168217821086EE
:100260001186109216011092D30086E00E94630A54
:100270002FEF89E698E1215080409040E1F700C0DF
:10028000000086E00C94730A860F242FFA019E2F3B
:10029000921B961718F49191890FF9CF0895CF9278
:1002A000DF92EF92FF920F931F93CF93DF9341342E
:1002B00028F5C42F8B01D82F8AEA0E943A078D2F88
:1002C0000E943A078C2F0E943A0778016801CC0EF1
:1002D000D11CEC14FD0431F0F70181917F010E94E3
:1002E0003A07F7CFA8016C2F8D2F0E9444010E947E
:1002F0003A0785E50E943A0781E001C080E0DF917E
:10030000CF911F910F91FF90EF90DF90CF900895C4
:1003100040E060E070E080EA0C944F0140E060E073
:1003200070E081EA0C944F0143E1BC0180EB0C9436
:100330004F0140E3BC0181EB0C944F0140E1BC0153
:1003400082EB0C944F014AE0BC0184EB0C944F010A
:10035000CF93C62F87FD02C061E002C060E08195A7
:100360000E943908C7FD03C061E08C2F03C060E024
:100370008C2F8195CF910C9448080E94630885E0EA
:100380000C94630ACF93DF93CDB7DEB76B970FB6AC
:10039000F894DEBF0FBECDBFCE0101960E942B0A9E
:1003A000E0ECF0E04B855C856D857E854083518374
:1003B000628373834F85588969897A894483558319
:1003C0006683778310861186128613864C895D8931
:1003D0006E897F894487558766877787108A118A57
:1003E000828BCF010E9494016B960FB6F894DEBF0A
:1003F0000FBECDBFDF91CF9108954F925F926F9264
:100400007F928F929F92AF92BF92CF92DF92EF92A4
:10041000FF920F931F93CF93DF93CDB7DEB72A9749
:100420000FB6F894DEBF0FBECDBF0E94310BCE01D8
:1004300001960E943C0CCE0101960E94750C6F83C0
:10044000788789879A874090590150905A01609027
:100450005B0170905C0100E910E0D8014D925D9263
:100460006D927C92139780903B0190903C01A090FC
:100470003D01B0903E01F80184829582A682B78248
:10048000C0904B01D0904C01E0904D01F0904E0196
:100490001896CD92DD92ED92FC921B9780915101BE
:1004A00090915201A0915301B09154018487958796
:1004B000A687B7878091370190913801A0913901C3
:1004C000B0913A01808B918BA28BB38B80914301C9
:1004D00090914401A0914501B0914601848B958B88
:1004E000A68BB78B69817A81072E000C880B990B3C
:1004F0000E94140FD80158966D937D938D939C9311
:100500005B976B817C81072E000C880B990B0E94F6
:10051000140FF801648F758F868F978F6D817E81A0
:10052000072E000C880B990B0E94140FD80190968F
:100530006D937D938D939C939397A7019601C5012D
:10054000B4010E940D0E20E030E044E353E40E9429
:10055000F80F2BED3FE049E450E40E94710EF801E2
:1005600064A375A386A397A3A5019401C501B40153
:100570000E94F80F4B015C01A7019601C701B6016B
:100580000E94F80F9B01AC01C501B4010E948E0DC1
:100590000E946B109B01AC01C301B20190580E94F4
:1005A0000D0E20E030E044E353E40E94F80F2BED01
:1005B0003FE049E450E40E94710ED80198966D9393
:1005C0007D938D939C939B978F819885A985BA8500
:1005D000F80184A795A7A6A7B7A7C8010E9499010B
:1005E0002A960FB6F894DEBF0FBECDBFDF91CF9134
:1005F0001F910F91FF90EF90DF90CF90BF90AF9041
:100600009F908F907F906F905F904F900895CF92C2
:10061000DF92EF92FF92CF93DF9300D000D0CDB75F
:10062000DEB760E0CE0101960E940A0DC980DA8033
:10063000EB80FC8020E030E0A901C701B6010E94F8
:10064000EB0F87FF06C0C12CD12C38ECE32E33E42E
:10065000F32EC0928000D0928100E0928200F0924E
:1006600083002FEF80E792E0215080409040E1F737
:1006700000C0000061E0CE0101960E940A0DC98011
:10068000DA80EB80FC8020E030E0A901C701B601F0
:100690000E94EB0F87FF06C0C12CD12C28ECE22E64
:1006A00023E4F22EC0928400D0928500E09286006E
:1006B000F09287002FEF80E792E021508040904039
:1006C000E1F700C0000062E0CE0101960E940A0D31
:1006D000C980DA80EB80FC8020E030E0A901C7010E
:1006E000B6010E94EB0F87FF06C0C12CD12C98ECFD
:1006F000E92E93E4F92EC0928800D0928900E0920E
:100700008A00F0928B002FEF80E792E0215080402A
:100710009040E1F700C0000063E0CE0101960E9426
:100720000A0DC980DA80EB80FC8020E030E0A9016E
:10073000C701B6010E94EB0F87FF06C0C12CD12C68
:1007400088ECE82E83E4F82EC0928C00D0928D00C5
:10075000E0928E00F0928F0080E890E00E949E016F
:100760000F900F900F900F90DF91CF91FF90EF902F
:10077000DF90CF900895E6E7F0E0809172009091CD
:100780007300A0917400B091750080839183A2835F
:10079000B38380E090E0A0E4B1E484839583A683F2
:1007A000B78382E380871186CF010C94A30188234D
:1007B00019F087E00C94630A87E00C94730A8111A6
:1007C0000C947B070C9480070E9488012FEF81EE28
:1007D00094E0215080409040E1F700C0000080E0AC
:1007E0000E947407FFCF1F93CF93DF939091160160
:1007F0009230A1F048F4992361F0913009F098C04B
:100800008093150182E018C09330C9F0943031F123
:100810008FC08A3A09F08CC081E00EC08093140129
:10082000813418F01092160183C0811102C084E057
:1008300003C01092D30083E08093160179C0E09149
:10084000D30091E09E0F9093D300F0E0EC52FF4F65
:10085000808380911401981750F76AC0D82F1091A7
:100860001401C091150144ED50E0612F8C2F0E94BE
:100870004401D8135AC0C23109F441C098F4C330BE
:1008800041F140F4C130E1F0C23009F04EC00E94A5
:10089000630841C0C03101F1C13109F046C00E9476
:1008A000FD01C0CFC132D1F128F4C331C1F0C03253
:1008B00061F13BC0C23231F1C332B9F50E94E403A9
:1008C000123099F56091D5008091D4000E94A80162
:1008D00022C00E94BD011FC00E94C201A3CF0E947E
:1008E000C2018FE39CE90197F1F700C000000E946C
:1008F000FD018FE39CE90197F1F700C000000E9421
:10090000070390CF0E94BB038DCF113071F480910B
:10091000D4000E94D7030E94880184CF113029F4AB
:100920008091D4000E94DF03F6CF0E948E017ACF1F
:10093000DF91CF911F910895809172009091730083
:10094000A0917400B09175000196A11DB11D809316
:10095000720090937300A0937400B0937500089593
:10096000483008F060C0643008F05DC0823008F0A4
:100970005AC0623079F1633009F441C06130A9F0A6
:100980002AB3813041F481E090E001C0880F4A959C
:10099000EAF7822B08C081E090E001C0880F4A95F9
:1009A000EAF7809582238ABB089527B3813041F40A
:1009B00081E090E001C0880F4A95EAF7822B08C0D9
:1009C00081E090E001C0880F4A95EAF78095822384
:1009D00087BB089524B3813041F481E090E001C0E9
:1009E000880F4A95EAF7822B08C081E090E001C0A9
:1009F000880F4A95EAF78095822384BB089521B336
:100A0000813041F481E090E001C0880F4A95EAF717
:100A1000822B08C081E090E001C0880F4A95EAF778
:100A20008095822381BB0895483008F060C064300F
:100A300008F05DC0823008F05AC0623079F163304E
:100A400009F441C06130A9F02BB3813041F481E059
:100A500090E001C0880F4A95EAF7822B08C081E038
:100A600090E001C0880F4A95EAF7809582238BBBFE
:100A7000089528B3813041F481E090E001C0880FEF
:100A80004A95EAF7822B08C081E090E001C0880F08
:100A90004A95EAF78095822388BB089525B3813073
:100AA00041F481E090E001C0880F4A95EAF7822B7B
:100AB00008C081E090E001C0880F4A95EAF7809570
:100AC000822385BB089522B3813041F481E090E018
:100AD00001C0880F4A95EAF7822B08C081E090E0B8
:100AE00001C0880F4A95EAF78095822382BB08955A
:100AF0001F920F920FB60F9211242F933F934F9393
:100B00005F936F937F938F939F93AF93BF93EF9375
:100B1000FF93E0911701F0911801309709F00995C2
:100B2000FF91EF91BF91AF919F918F917F916F91C5
:100B30005F914F913F912F910F900FBE0F901F909B
:100B400018951F920F920FB60F9211242F933F9377
:100B50004F935F936F937F938F939F93AF93BF93C5
:100B6000EF93FF93E0911901F0911A01309709F08A
:100B70000995FF91EF91BF91AF919F918F917F91D7
:100B80006F915F914F913F912F910F900FBE0F90FA
:100B90001F9018959C0180E0F901E80FF11D9081EC
:100BA000992311F08F5FF8CF0895DC01FB019D912F
:100BB000992329F081919817D1F380E0089581E07D
:100BC000089583B7806483BF83B7886083BF83B78A
:100BD0008F7E83BF83B7806283BF089583B78160B0
:100BE00083BF83B7826083BF83B78B7F83BF089542
:100BF000853640F4982F80E064E670E00E94C410CF
:100C000061506CBF08951F920F920FB60F9211247E
:100C10002F933F934F935F936F937F938F939F9304
:100C2000AF93BF93EF93FF9380911D0190911E01AD
:100C3000019690931E0180931D01813D934069F4BC
:100C400081E782BF10921E0110921D01E0912301E5
:100C5000F0912401309709F00995FF91EF91BF9130
:100C6000AF919F918F917F916F915F914F913F9144
:100C70002F910F900FBE0F901F9018951F920F92FB
:100C80000FB60F9211242F933F934F935F936F935F
:100C90007F938F939F93AF93BF93EF93FF93809135
:100CA0001B0190911C01019690931C0180931B01E4
:100CB00020911F01309120018217930759F410925F
:100CC0001C0110921B01E0912101F091220130974B
:100CD00009F00995FF91EF91BF91AF919F918F918D
:100CE0007F916F915F914F913F912F910F900FBE28
:100CF0000F901F9018958FB58F7B8FBD8FB58F7715
:100D00008FBD8FB58F7E8FBD8FB58F7D8FBD8FB51A
:100D10008E7F8FBD8FB58D7F8FBD8EB5877F8EBD4A
:100D20008EB58F7E8EBD08959EB590689EBD88233A
:100D300019F0813021F008958EB5806402C08EB51F
:100D40008F7B8EBD08958EB58B7F8EBD8EB58D7FCA
:100D50008EBD8EB581608EBD08958EB58B7F8EBDA4
:100D60008EB58D7F8EBD8EB58E7F8EBD0895089811
:100D700009988CE080B986B7806486BF86B78460A6
:100D800086BF089586B7806286BF86B7806886BFB3
:100D900006B607FEFDCF81B1887F8830E1F7089560
:100DA00086B7806186BF86B7806886BF089583B99D
:100DB00086B7806886BF06B607FEFDCF81B1887F03
:100DC0008832E1F70895FC01892B61F096B79068AD
:100DD00096BF06B607FEFDCF91B1987F9035E1F73B
:100DE00083B180830895FC01892B91F096B79F7B96
:100DF00096BF96B7906896BF06B607FEFDCF91B135
:100E0000987F9835E1F783B1808386B7806486BF89
:100E100008950C94C2060C94D0060C94D706CF9378
:100E2000DF931F92CDB7DEB7CE0101960E94E30695
:100E300089810F90DF91CF910895CF93DF931F9217
:100E4000CDB7DEB7CE0101960E94F30689810F90DF
:100E5000DF91CF910895599887E689B986E880BDDA
:100E60005298539A549A08955D9BFECF8CB9089579
:100E70000C942B070C9434075F9BFECF8CB1089524
:100E8000883088F590E0FC013197E730F10528F4CF
:100E9000E65DFF4F81B50C94FA1081B58B7F07C0DA
:100EA0008B7F0AC08B7F0DC08B7F13C0846081BD98
:100EB00081B58D7F09C0846081BD81B58D7F0CC0F7
:100EC000846081BD81B5826081BD81B58E7F07C0A0
:100ED000846081BD81B5826081BD81B5816081BD45
:100EE00081B5886081BD08950C94400744E062E0BC
:100EF00081E00C94B00444E062E081E00C941405BD
:100F000044E062E080E00C941405813091F028F018
:100F1000823019F0833069F0089542E063E080E0A8
:100F20000E94140543E063E080E00E94140544E061
:100F30000BC042E062E080E00E94140543E062E002
:100F400080E00E94140545E063E080E00C94140505
:100F500042E063E081E00E94B00443E063E081E0AE
:100F60000E94B00444E063E081E00E94B00442E0EB
:100F700063E080E00E94140543E063E080E00E94AB
:100F8000140544E063E080E00C94140542E062E064
:100F900081E00E94B00443E062E081E00E94B0047E
:100FA00045E063E081E00E94B00442E062E080E05E
:100FB0000E94140543E062E080E00E94140545E0D1
:100FC00063E080E00C9414050E94A8070E94C60705
:100FD0000E94A8070E94C60743E061E081E00E94EA
:100FE000B0040E94E1050C94EE05CF93DF938536A3
:100FF000E8F56430D8F54230C8F5C42FD62F0E94EA
:10100000F805D23021F0D330B9F0D130A9F044E066
:1010100063E081E00E94140542E063E0C13031F4F6
:1010200081E00E94140543E063E014C080E00E9468
:10103000140543E063E015C045E063E081E00E94F1
:10104000140542E062E0C13039F481E00E941405E9
:1010500043E062E080E006C080E00E94140543E0C7
:1010600062E081E0DF91CF910C941405DF91CF9184
:101070000895CF93DF93C82FD62F462F60E00E94AC
:10108000F5074D2F62E08C2FDF91CF910C94F5077F
:10109000CF93DF93C82FD62F462F61E00E94F5072C
:1010A0004D2F63E08C2FDF91CF910C94F50780E0FA
:1010B0000E94850781E00E94850782E00E948507E3
:1010C00083E00C9485070C9457080C943807EF9232
:1010D000FF920F931F93CF93DF937C018C01C0E0AD
:1010E000D0E00E943C07F80181938F018A3021F4FF
:1010F000CE0DDF1D198204C02196C436D10589F7B3
:10110000DF91CF911F910F91FF90EF900895CF93B2
:10111000DF93CDB7DEB727970FB6F894DEBF0FBECB
:10112000CDBFDC01FE0131969E01295F3F4FCF010B
:101130004D914193E217F307D9F71F8260E670E003
:101140000E94D50527960FB6F894DEBF0FBECDBF1F
:10115000DF91CF9108952F923F924F925F926F92BD
:101160007F928F929F92AF92BF92CF92DF92EF9237
:10117000FF920F931F93CF93DF938C01332433940B
:10118000412C512C80E8682E8FE3782E212C812C65
:10119000912C5401750164018FEF830DF801E80F64
:1011A000F11DC081CC2309F43FC0CE32C9F1D0E09B
:1011B00020E030E040E251E42220F1F0C501B4012A
:1011C0000E94F80F4B015C01E097BE01DD0F880B18
:1011D000990B0E94140FA50194010E948E0D4B01E2
:1011E0005C0120E030E040E251E4C301B2010E9422
:1011F000F80F2B013C0116C0C701B6010E94F80F81
:101200006B017C01E097BE01DD0F880B990B0E94FA
:10121000140FA70196010E948E0D6B017C0102C084
:10122000222423943394B8CFA3019201C501B401C1
:101230000E94710EA70196010E948E0DDF91CF9141
:101240001F910F91FF90EF90DF90CF90BF90AF90E4
:101250009F908F907F906F905F904F903F902F90D6
:1012600008958F929F92AF92BF92CF92DF92EF92AA
:10127000FF920E94AB084B015C0120E030E048EC9B
:1012800052E40E94710E0E94E30E6B017C01A4E601
:10129000B0E09B01AC010E940F110E94120F9B0154
:1012A000AC01C501B4010E948D0D20E030E040E7A3
:1012B00052E40E94710E4B015C01C701B6010E940D
:1012C000120F9B01AC01C501B4010E948E0DFF906D
:1012D000EF90DF90CF90BF90AF909F908F90089548
:1012E000CF93DF9390E0FC013297E830F10508F0EE
:1012F0005AC0EA01CB01EF5CFF4F0C94FA10FB01DE
:10130000DA019B01275F3F4F8191882321F08D9364
:10131000E217F307C9F7198646C0FB0180818134C3
:1013200011F085E501C08AEA8A8B3DC00E9431092F
:101330006A877B878C879D8736C0FB0180818335D8
:1013400091F58A859B85AC85BD85B0588A879B873A
:10135000AC87BD8728C00E9431096E877F87888B44
:10136000998B21C0FB0180818735E9F48E859F85AB
:10137000A889B989B0588E879F87A88BB98B13C06D
:101380000E94AB082AE932EB43E05FE30E94F80FCA
:101390006B8B7C8B8D8B9E8B06C00E94AB086F8BFA
:1013A000788F898F9A8FDF91CF910895AF92BF92F6
:1013B000CF92DF92EF92FF920F931F93CF93DF9321
:1013C000CDB7DEB764970FB6F894DEBF0FBECDBFC2
:1013D0008C017B01B12CA12C6801CB0CD11CF60136
:1013E0008081882339F18C3211F08A3061F4D60182
:1013F0001C92A394A701BE016F5F7F4F8A2D0E94AC
:101400007009198215C0CE0101960E94CA0590E0AC
:10141000E1E0F0E0EC0FFD1FE80FF91FD6012C9181
:101420002083E2E0F0E0EC0FFD1FE80FF91F1082CF
:10143000B394D2CF64960FB6F894DEBF0FBECDBF83
:10144000DF91CF911F910F91FF90EF90DF90CF90A0
:10145000BF90AF9008950F931F93CF93DF93CDB7B5
:10146000DEB7C456D1090FB6F894DEBF0FBECDBFAC
:101470008C01CE0101960E946708CE0101960E9460
:101480008708B801CE0101960E94D609F801828929
:10149000CC59DF4F0FB6F894DEBF0FBECDBFDF9142
:1014A000CF911F910F91089545E062E081E00E9485
:1014B000B00446E062E081E00E94B00447E062E0F0
:1014C00081E00C94B004863031F0873031F0853003
:1014D00049F445E003C046E001C047E062E081E036
:1014E0000C9414050895863031F0873031F0853042
:1014F00049F445E003C046E001C047E062E080E017
:101500000C94140508951F93CF93DF93182FD62FB3
:10151000C42F0E940907812F0E940D078D2F0E9462
:101520000D078C2F0E940D07DF91CF911F910C9416
:101530000B070E94090780ED0E940D078BE60E94B1
:101540000D0780E00E940D070E940B072FEF81EE30
:1015500094E0215080409040E1F700C0000040E05E
:101560006CE180ED0E94830A40E06BE180ED0C9419
:10157000830ACF93DF930E94090780ED0E940D0735
:101580008BE30E940D0785E38A95F1F700000E9426
:10159000090781ED0E940D07C5E2D1E00E940F0707
:1015A000899391E0C233D907C9F70E941D07809340
:1015B00032010E940B078FE19EE40197F1F700C012
:1015C000000080912501909126019827892798276E
:1015D00090934801809347018091270190912801C1
:1015E0009827892798279093360180933501809119
:1015F000290190912A0198278927982790935001D3
:1016000080934F0180912B0190912C01982789277D
:1016100098279093400180933F0180912D019091F4
:101620002E019827892798279093420180934101A2
:1016300080912F01909130019827892798279093C6
:101640004A0180934901809131019091320198279C
:10165000892798279093340180933301DF91CF91AC
:1016600008950E94B90A6091470170914801072EC0
:10167000000C880B990B0E94140F20E030E040E82A
:1016800058E30E94F80F23EC35EF4CE151E40E943F
:10169000F80F6093590170935A0180935B01909306
:1016A0005C016091350170913601072E000C880BAA
:1016B000990B0E94140F20E030E040E858E30E94AC
:1016C000F80F23EC35EF4CE151E40E94F80F6093E2
:1016D0003B0170933C0180933D0190933E016091EA
:1016E0004F0170915001072E000C880B990B0E943E
:1016F000140F20E030E040E858E30E94F80F23EC9C
:1017000035EF4CE151E40E94F80F60934B01709368
:101710004C0180934D0190934E0160913F01709177
:101720004001072E000C880B990B0E94140F20E03B
:1017300030E04AEA53E40E94710E28EB3EE142E1B8
:1017400052E40E948E0D6093550170935601809370
:101750005701909358016091410170914201072E09
:10176000000C880B990B0E94140F20E030E043E03E
:1017700053E40E94710E6093510170935201809363
:101780005301909354016091490170914A01072ED1
:10179000000C880B990B0E94140F20E030E043E00E
:1017A00053E40E94710E6093370170933801809367
:1017B000390190933A016091330170913401072E01
:1017C000000C880B990B0E94140F20E030E043E0DE
:1017D00053E40E94710E609343017093440180931F
:1017E00045019093460108950E94090780ED0E94EB
:1017F0000D078AE60E940D0780E00E940D070E94F7
:101800000B078FE39CE90197F1F700C000000E94ED
:10181000090780ED0E940D0787E30E940D0782E013
:101820000E940D070E940B070E94090780ED0E948D
:101830000D078BE60E940D0780E00E940D070E94B5
:101840000B078FE39CE90197F1F700C000000895B2
:101850000E9409078AE10E940D0789E00E940D0796
:1018600081E10E940D070E940B078FE39CE901971D
:10187000F1F700C0000008950F931F93CF938C01E0
:101880000E9409078AE10E940D0780E00E940D076F
:101890000E940B070E9409078BE10E940D070E941E
:1018A0000F07C82F0E940F072C2F30E0382BF801AC
:1018B000318320830E940F07C82F0E940F072C2F0F
:1018C00030E0382BF801338322830E940F07C82FA2
:1018D0000E941D072C2F30E0382BF801358324831C
:1018E000CF911F910F910C940B07CF92DF92EF9243
:1018F000FF92CF93DF93EC0168817981072E000C72
:10190000880B990B0E94140F6B017C016A817B810B
:10191000072E000C880B990B0E94140FA70196014B
:101920000E940D0E20E030E044E353E40E94F80FE3
:101930002BED3FE049E450E40E94710E6B017C0105
:1019400020E030E0A9010E946C0E87FF0AC020E071
:1019500030E044EB53E4C701B6010E948E0D6B01E9
:101960007C01C701B601DF91CF91FF90EF90DF902E
:10197000CF90089540E060E081E00E94B00441E033
:1019800060E081E00E94B00442E060E081E00E94FB
:10199000B00443E060E081E00E94B00446E063E010
:1019A00080E00C94B004813089F028F08230C9F0D6
:1019B000833011F1089540E060E081E00E94140559
:1019C00085E38A95F1F7000040E020C041E060E047
:1019D00081E00E94140585E38A95F1F7000041E05B
:1019E00015C042E060E081E00E94140585E38A951D
:1019F000F1F7000042E00AC043E060E081E00E94AD
:101A0000140585E38A95F1F7000043E060E080E08B
:101A10000C941405CF92DF92EF92FF92CF93DF9355
:101A2000EC01F62E0E947B060E94A3061DBC1CBC86
:101A300088B7806288BF8F2D0E94D30C80E00E94FF
:101A4000940680E090E008B605FC06C0019681355A
:101A500023EC9207C1F712C0C6B4D7B488B780622E
:101A600088BF81E00E94940680E090E008B605FC03
:101A700012C00196813523EC9207C1F780E090E017
:101A8000A0E8BFEB88839983AA83BB830E94AD063D
:101A90001DBC1CBC3BC0E6B4F7B488B7806288BFED
:101AA0000E94AD061DBC1CBC97012C193D09A8E283
:101AB000B7E80E94001120E038E448EE51E00E94AF
:101AC000D810CA01B9010E94120F6B017C0120E0FD
:101AD00030E040E050E40E946C0E87FD0FC020E033
:101AE00030E048EC53E4C701B6010E94EB0F181632
:101AF0002CF0C882D982EA82FB8208C080E090E0A4
:101B0000A0E8BFEB88839983AA83BB83DF91CF9141
:101B1000FF90EF90DF90CF9008955058BB27AA27F1
:101B20000E94A50D0C94B10F0E94A30F38F00E94E3
:101B3000AA0F20F039F49F3F19F426F40C94790F82
:101B40000EF4E095E7FB0C94730FE92F0E94C20F8F
:101B500058F3BA17620773078407950720F079F4E2
:101B6000A6F50C94E40F0EF4E0950B2EBA2FA02DE1
:101B70000B01B90190010C01CA01A0011124FF273A
:101B8000591B99F0593F50F4503E68F11A16F04035
:101B9000A22F232F342F4427585FF3CF4695379534
:101BA0002795A795F0405395C9F77EF41F16BA0BF9
:101BB000620B730B840BBAF09150A1F0FF0FBB1FA7
:101BC000661F771F881FC2F70EC0BA0F621F731FF0
:101BD000841F48F4879577956795B795F7959E3F4D
:101BE00008F0B0CF9395880F08F09927EE0F9795DE
:101BF000879508950E94A30F60F080E891E009F4B2
:101C00009EEF0E94AA0F28F040E851E071F45EEFC9
:101C10000CC00C94790F0C94E40FE92FE0780E942B
:101C2000C20F40F3092E052AB1F3261737074807DC
:101C3000590738F00E2E07F8E02569F0E025E0643A
:101C40000AC0EF6307F8009407FADB01B9019D01B0
:101C5000DC01CA01AD01EF930E94880E0E94B10F12
:101C60000E943D0E5F91552339F02BED3FE049E492
:101C700050FD49EC0C948E0D0895DF93DD27B92FAC
:101C8000BF7740E85FE31616170648075B0718F4AE
:101C9000D92F0E94F00F9F938F937F936F930E9491
:101CA000AB10E2E7F0E00E947C0F0E94B10F2F9191
:101CB0003F914F915F910E940B10DD2351F090589E
:101CC000A2EA2AED3FE049EC5FE3D0785D270E946D
:101CD000A50DDF910C94B10F0E944F0F08F481E025
:101CE00008950E94850E0C94B10F0E94AA0F58F01F
:101CF0000E94A30F40F029F45F3F29F00C94730F6A
:101D000051110C94E50F0C94790F0E94C20F68F3E7
:101D10009923B1F3552391F3951B550BBB27AA27A4
:101D200062177307840738F09F5F5F4F220F331FDE
:101D3000441FAA1FA9F335D00E2E3AF0E0E832D0A6
:101D400091505040E695001CCAF72BD0FE2F29D0A9
:101D5000660F771F881FBB1F261737074807AB077B
:101D6000B0E809F0BB0B802DBF01FF2793585F4FF0
:101D70003AF09E3F510578F00C94730F0C94E50FE8
:101D80005F3FE4F3983ED4F3869577956795B795D2
:101D9000F7959F5FC9F7880F911D9695879597F9DD
:101DA0000895E1E0660F771F881FBB1F6217730756
:101DB0008407BA0720F0621B730B840BBA0BEE1F6B
:101DC00088F7E09508950E94CA0F88F09F5798F011
:101DD000B92F9927B751B0F0E1F0660F771F881F30
:101DE000991F1AF0BA95C9F714C0B13091F00E944A
:101DF000E40FB1E008950C94E40F672F782F882743
:101E0000B85F39F0B93FCCF3869577956795B39570
:101E1000D9F73EF490958095709561957F4F8F4FDF
:101E20009F4F0895E89409C097FB3EF490958095E4
:101E3000709561957F4F8F4F9F4F9923A9F0F92F90
:101E400096E9BB279395F695879577956795B7950E
:101E5000F111F8CFFAF4BB0F11F460FF1BC06F5FF4
:101E60007F4F8F4F9F4F16C0882311F096E911C006
:101E7000772321F09EE8872F762F05C0662371F027
:101E800096E8862F70E060E02AF09A95660F771F3B
:101E9000881FDAF7880F9695879597F90895990F17
:101EA0000008550FAA0BE0E8FEEF16161706E80724
:101EB000F907C0F012161306E407F50798F0621B45
:101EC000730B840B950B39F40A2661F0232B242B1A
:101ED000252B21F408950A2609F4A140A6958FEF39
:101EE000811D811D089597F99F6780E870E060E08B
:101EF00008959FEF80EC0895DF93CF931F930F9386
:101F0000FF92EF92DF927B018C01689406C0DA2E7B
:101F1000EF010E940B10FE01E894A59125913591E7
:101F200045915591A6F3EF010E94A50DFE01970181
:101F3000A801DA9469F7DF90EF90FF900F911F915D
:101F4000CF91DF91089500240A94161617061806FB
:101F50000906089500240A941216130614060506AD
:101F60000895092E0394000C11F4882352F0BB0F3E
:101F700040F4BF2B11F460FF04C06F5F7F4F8F4FA1
:101F80009F4F089557FD9058440F551F59F05F3FDC
:101F900071F04795880F97FB991F61F09F3F79F08B
:101FA00087950895121613061406551FF2CF46950D
:101FB000F1DF08C0161617061806991FF1CF86958F
:101FC0007105610508940895E894BB276627772773
:101FD000CB0197F908950E944F0F08F48FEF0895F1
:101FE0009B01AC0160E070E080E89FE30C94710E0F
:101FF0000E940B100C94B10F0E94A30F38F00E94A6
:10200000AA0F20F0952311F00C94730F0C94790F04
:1020100011240C94E50F0E94C20F70F3959FC1F339
:10202000950F50E0551F629FF001729FBB27F00D86
:10203000B11D639FAA27F00DB11DAA1F649F6627DB
:10204000B00DA11D661F829F2227B00DA11D621F2A
:10205000739FB00DA11D621F839FA00D611D221FE4
:10206000749F3327A00D611D231F849F600D211DC8
:10207000822F762F6A2F11249F5750409AF0F1F04B
:1020800088234AF0EE0FFF1FBB1F661F771F881FB4
:1020900091505040A9F79E3F510580F00C94730F6A
:1020A0000C94E50F5F3FE4F3983ED4F38695779563
:1020B0006795B795F795E7959F5FC1F7FE2B880F5A
:1020C000911D9695879597F9089519F416F40C9437
:1020D000790F0C94AF100E94CA0FB8F39923C9F37B
:1020E000B6F39F57550B87FF0E94BD100024A0E652
:1020F00040EA900180585695979528F4805C660FC9
:10210000771F881F20F026173707480730F4621B17
:10211000730B840B202931294A2BA6951794079419
:10212000202531254A2758F7660F771F881F20F092
:1021300026173707480730F4620B730B840B200D0A
:10214000311D411DA09581F7B901842F9158880F49
:102150009695879508959B01AC010C94F80F9F3FCD
:1021600031F0915020F4879577956795B795880F52
:10217000911D9695879597F9089591505040660F57
:10218000771F881FD2F7089597FB072E16F4009447
:1021900007D077FD09D00E941A1107FC05D03EF444
:1021A000909581959F4F0895709561957F4F089503
:1021B000A1E21A2EAA1BBB1BFD010DC0AA1FBB1F4B
:1021C000EE1FFF1FA217B307E407F50720F0A21BBD
:1021D000B30BE40BF50B661F771F881F991F1A942A
:1021E00069F760957095809590959B01AC01BD0154
:1021F000CF010895EE0FFF1F0590F491E02D099493
:10220000A29FB001B39FC001A39F700D811D112437
:10221000911DB29F700D811D1124911D08950E9482
:102220000011A59F900DB49F900DA49F800D911D4E
:1022300011240895AA1BBB1B51E107C0AA1FBB1F95
:10224000A617B70710F0A61BB70B881F991F5A9542
:10225000A9F780959095BC01CD010895F894FFCF22
:08226000244750524D430000D9
:00000001FF
