:100000000C9457000C94E6040C9474000C94740047
:100010000C9474000C9474000C9474000C94740090
:100020000C9474000C9474000C946C050C943105C1
:100030000C9474000C9476000C9474000C9474006E
:100040000C9474000C94BD040C9474000C94740013
:100050000C9474008C068E069006920697069C06F9
:10006000A406084AD73B3BCE016E84BCBFFDC12F1E
:100070003D6C74319ABD56833DDA3D00C77F11BE99
:10008000D9E4BB4C3E916BAAAABE000000803F059C
:10009000A84CCDB2D44EB93836A9020C50B99186CD
:1000A00088083CA6AAAA2ABE000000803F001124AE
:1000B0001FBECFE5D8E0DEBFCDBF10E0A0E6B0E0C8
:1000C000EEE8F4E202C005900D92A836B107D9F728
:1000D00021E0A8E6B0E001C01D92A231B207E1F72D
:1000E0000E94E8000C9445120C9400001F920F929D
:1000F0000FB60F9211248F938CB18093700081E022
:10010000809371008F910F900FBE0F901F901895E4
:10011000F8940E94FD00579A78940E94B70686E0F2
:100120000E94B0072FEF83EC99E02150804090406F
:10013000E1F700C000000E94BC0686E00C94C007F6
:100140000F931F9380916C0090916D00A0916E00B1
:10015000B0916F000196A11DB11D80936C0090932A
:100160006D00A0936E00B0936F00409168005091B5
:10017000690060916A0070916B008C019D01041B05
:10018000150B260B370BB901A80141315742610508
:100190007105D8F08093680090936900A0936A007D
:1001A000B0936B000E94E10386E00E94B0072FEF3E
:1001B00030E782E0215030408040E1F700C000008D
:1001C00086E01F910F910C94C0071F910F91089525
:1001D0000E94880080917100882331F01092710094
:1001E000809170000E9447030E94A0008FE99FE069
:1001F0000197F1F700C00000EDCFCF93DF93CDB7AB
:10020000DEB7CA57D1090FB6F894DEBF0FBECDBF17
:100210000E9478060E94E505CE0101960E946A09B7
:100220000E94DE08882329F080917F008F5F8093F1
:100230007F002FEF81EE94E0215080409040E1F765
:1002400000C000000E9420070E94AB0D0E94B20671
:100250000E94A10710927600109277001092780009
:100260001092790010927A0010927B0010927C001C
:1002700010927D0010927E0010927F001092030178
:100280001092C00086E00E94B0072FEF89E698E147
:10029000215080409040E1F700C0000086E00E94BD
:1002A000C007C658DF4F0FB6F894DEBF0FBECDBFF4
:1002B000DF91CF910895860F242FFA019E2F921B74
:1002C000961718F49191890FF9CF0895CF92DF9284
:1002D000EF92FF920F931F93CF93DF93413428F552
:1002E000C42F8B01D82F8AEA0E947A068D2F0E9494
:1002F0007A068C2F0E947A0678016801CC0ED11CF8
:10030000EC14FD0431F0F70181917F010E947A061F
:10031000F7CFA8016C2F8D2F0E945B010E947A06F7
:1003200085E50E947A0681E001C080E0DF91CF91EF
:100330001F910F91FF90EF90DF90CF90089540E0D4
:1003400060E070E080EA0C94660140E060E070E0FC
:1003500081EA0C94660140E3BC0181EB0C946601D8
:1003600040E1BC0182EB0C9466014AE0BC0184EBE5
:100370000C946601CF93C62F87FD02C061E002C0D6
:1003800060E081950E947507C7FD03C061E08C2F76
:1003900003C060E08C2F8195CF910C9484070E945C
:1003A0009F0785E00C94B007CF93DF93CDB7DEB7FE
:1003B000CA57D1090FB6F894DEBF0FBECDBFCE012C
:1003C00001960E946A09CE0101960E94950DE0E90E
:1003D000F0E08D899E89AF89B88D80839183A28357
:1003E000B383898D9A8DAB8DBC8D84839583A683D1
:1003F000B7838D8D9E8DAF8DB8A180879187A287A1
:10040000B38789A19AA1ABA1BCA184879587A68750
:10041000B7878DA19EA1AFA1B8A5808B918BA28B30
:10042000B38B89A59AA5ABA5BCA5848B958BA68B10
:10043000B78B8DA59EA5AFA5B8A9808F918FA28FF0
:10044000B38F89A99AA9ABA9BCA9848F958FA68FD0
:10045000B78F8DA99EA9AFA9B8AD80A391A3A2A380
:10046000B3A321968CAD9DADAEADBFAD219784A356
:1004700095A3A6A3B7A325968CAD9DADAEADBFAD9C
:10048000259780A791A7A2A7B3A729968CAD9DAD6C
:10049000AEADBFAD299784A795A7A6A7B7A7CF01F3
:1004A0000E94AB01C658DF4F0FB6F894DEBF0FBEF7
:1004B000CDBFDF91CF910895CF92DF92EF92FF925F
:1004C000CF93DF9300D000D0CDB7DEB760E0CE0190
:1004D00001960E94FB0DC980DA80EB80FC8020E051
:1004E00030E0A901C701B6010E94F11087FF06C0E4
:1004F000C12CD12C38ECE32E33E4F32EC0928000D3
:10050000D0928100E0928200F09283002FEF80E78A
:1005100092E0215080409040E1F700C0000061E08F
:10052000CE0101960E94FB0DC980DA80EB80FC8031
:1005300020E030E0A901C701B6010E94F11087FF59
:1005400006C0C12CD12C28ECE22E23E4F22EC0925E
:100550008400D0928500E0928600F09287002FEF11
:1005600080E792E0215080409040E1F700C0000019
:1005700062E0CE0101960E94FB0DC980DA80EB801B
:10058000FC8020E030E0A901C701B6010E94F11013
:1005900087FF06C0C12CD12C98ECE92E93E4F92EEC
:1005A000C0928800D0928900E0928A00F0928B007D
:1005B0002FEF80E792E0215080409040E1F700C0AB
:1005C000000063E0CE0101960E94FB0DC980DA8035
:1005D000EB80FC8020E030E0A901C701B6010E9459
:1005E000F11087FF06C0C12CD12C88ECE82E83E4E3
:1005F000F82EC0928C00D0928D00E0928E00F09286
:100600008F0080E890E00E94B0010F900F900F9053
:100610000F90DF91CF91FF90EF90DF90CF900895F2
:10062000E6E7F0E08091720090917300A091740071
:10063000B091750080839183A283B38380E090E0C2
:10064000A0E4B1E484839583A683B78382E38087A3
:10065000CF010C94B501882319F087E00C94B00702
:1006600087E00C94C00781110C94B7060C94BC066B
:100670000E949F012FEF81EE94E021508040904036
:10068000E1F700C0000080E00E94B006FFCF1F939A
:10069000CF93DF93909103019230A1F048F4992316
:1006A00061F0913009F089C08093020182E018C0A6
:1006B0009330C9F0943031F180C08A3A09F07DC09E
:1006C00081E00EC080930101813418F01092030183
:1006D00074C0811102C084E003C01092C00083E0A6
:1006E000809303016AC0E091C00091E09E0F909357
:1006F000C000F0E0EF53FF4F808380910101981715
:1007000050F75BC0D82F10910101C091020141EC5C
:1007100050E0612F8C2F0E945B01D8134BC0C23177
:1007200099F168F4C23011F118F4C130B1F042C04F
:10073000C330F9F0C131F1F50E94D401C7CFC13205
:1007400091F128F4C331C1F0C03221F133C0C2327B
:10075000F1F0C33279F50E943803123059F56091F7
:10076000C2008091C1000E94BA011AC00E949F0776
:1007700017C00E94CF0114C00E94D4018FE39CE9EE
:100780000197F1F700C000000E945C029FCF0E9419
:1007900010039CCF113071F48091C1000E942B0393
:1007A0000E949F0193CF113029F48091C1000E94D3
:1007B0003303F6CF0E94A50189CFDF91CF911F911E
:1007C00008958091720090917300A0917400B0918F
:1007D00075000196A11DB11D809372009093730066
:1007E000A0937400B09375000895483008F060C07D
:1007F000643008F05DC0823008F05AC0623079F190
:10080000633009F441C06130A9F02AB3813041F46A
:1008100081E090E001C0880F4A95EAF7822B08C07A
:1008200081E090E001C0880F4A95EAF78095822325
:100830008ABB089527B3813041F481E090E001C084
:10084000880F4A95EAF7822B08C081E090E001C04A
:10085000880F4A95EAF78095822387BB089524B3D1
:10086000813041F481E090E001C0880F4A95EAF7B9
:10087000822B08C081E090E001C0880F4A95EAF71A
:100880008095822384BB089521B3813041F481E0B7
:1008900090E001C0880F4A95EAF7822B08C081E0FA
:1008A00090E001C0880F4A95EAF78095822381BBCA
:1008B0000895483008F060C0643008F05DC08230B0
:1008C00008F05AC0623079F1633009F441C06130F8
:1008D000A9F02BB3813041F481E090E001C0880F92
:1008E0004A95EAF7822B08C081E090E001C0880FAA
:1008F0004A95EAF7809582238BBB089528B381300F
:1009000041F481E090E001C0880F4A95EAF7822B1C
:1009100008C081E090E001C0880F4A95EAF7809511
:10092000822388BB089525B3813041F481E090E0B3
:1009300001C0880F4A95EAF7822B08C081E090E059
:1009400001C0880F4A95EAF78095822385BB0895F8
:1009500022B3813041F481E090E001C0880F4A95D4
:10096000EAF7822B08C081E090E001C0880F4A9529
:10097000EAF78095822382BB08951F920F920FB6EB
:100980000F9211242F933F934F935F936F937F9315
:100990008F939F93AF93BF93EF93FF93E0910401E5
:1009A000F0910501309709F00995FF91EF91BF9102
:1009B000AF919F918F917F916F915F914F913F91F7
:1009C0002F910F900FBE0F901F9018951F920F92AE
:1009D0000FB60F9211242F933F934F935F936F9312
:1009E0007F938F939F93AF93BF93EF93FF93E09188
:1009F0000601F0910701309709F00995FF91EF91F9
:100A0000BF91AF919F918F917F916F915F914F9126
:100A10003F912F910F900FBE0F901F90189583B7A5
:100A2000806483BF83B7886083BF83B78F7E83BFB3
:100A300083B7806283BF089583B7816083BF83B724
:100A4000826083BF83B78B7F83BF0895853640F470
:100A5000982F80E064E670E00E94E61161506CBF60
:100A600008951F920F920FB60F9211242F933F9368
:100A70004F935F936F937F938F939F93AF93BF93A6
:100A8000EF93FF9380910A0190910B01019690934F
:100A90000B0180930A01813D934069F481E782BF95
:100AA00010920B0110920A01E0911001F0911101D6
:100AB000309709F00995FF91EF91BF91AF919F9108
:100AC0008F917F916F915F914F913F912F910F90F7
:100AD0000FBE0F901F9018951F920F920FB60F9296
:100AE00011242F933F934F935F936F937F938F9333
:100AF0009F93AF93BF93EF93FF93809108019091E1
:100B000009010196909309018093080120910C013D
:100B100030910D018217930759F410920901109238
:100B20000801E0910E01F0910F01309709F009954D
:100B3000FF91EF91BF91AF919F918F917F916F91B5
:100B40005F914F913F912F910F900FBE0F901F908B
:100B500018958FB58F7B8FBD8FB58F778FBD8FB574
:100B60008F7E8FBD8FB58F7D8FBD8FB58E7F8FBDF3
:100B70008FB58D7F8FBD8EB5877F8EBD8EB58F7EF5
:100B80008EBD08959EB590689EBD882319F0813072
:100B900021F008958EB5806402C08EB58F7B8EBD26
:100BA00008958EB58B7F8EBD8EB58D7F8EBD8EB533
:100BB00081608EBD08958EB58B7F8EBD8EB58D7F85
:100BC0008EBD8EB58E7F8EBD0895089809988CE0F5
:100BD00080B986B7806486BF86B7846086BF089573
:100BE00086B7806286BF86B7806886BF06B607FE76
:100BF000FDCF81B1887F8830E1F7089586B78062A4
:100C000086BF86B7806886BF06B607FEFDCF81B176
:100C1000887F8031E1F7089586B7806186BF86B707
:100C2000806886BF089587FD10C0880F83B9189823
:100C300086B78F7D86BF86B7806886BF06B607FEFB
:100C4000FDCF81B1887F8831E1F7089587FD10C01D
:100C5000880F83B9189A86B78F7D86BF86B780685C
:100C600086BF06B607FEFDCF81B1887F8034E1F7ED
:100C7000089583B986B7806886BF06B607FEFDCFA4
:100C800081B1887F8832E1F70895FC01892B61F0FA
:100C900096B7906896BF06B607FEFDCF91B1987FD4
:100CA0009035E1F783B180830895FC01892B91F0A1
:100CB00096B79F7B96BF96B7906896BF06B607FE1D
:100CC000FDCF91B1987F9835E1F783B1808386B7E6
:100CD000806486BF0895599888E089B986E880BD08
:100CE0005298539A549A08955D9BFECF8CB90895FB
:100CF0000C946B060C947406883088F590E0FC0127
:100D00003197E730F10528F4E65DFF4F81B50C948B
:100D10001C1281B58B7F07C08B7F0AC08B7F0DC0F3
:100D20008B7F13C0846081BD81B58D7F09C08460D5
:100D300081BD81B58D7F0CC0846081BD81B582602D
:100D400081BD81B58E7F07C0846081BD81B5826021
:100D500081BD81B5816081BD81B5886081BD089507
:100D60000C947C0644E062E081E00C94F50344E0DE
:100D700062E081E00C94590444E062E080E00C946D
:100D80005904813091F028F0823019F0833069F0F5
:100D9000089542E063E080E00E94590443E063E08C
:100DA00080E00E94590444E00BC042E062E080E031
:100DB0000E94590443E062E080E00E94590445E04B
:100DC00063E080E00C94590442E063E081E00E941B
:100DD000F50343E063E081E00E94F50344E063E053
:100DE00081E00E94F50342E063E080E00E94590444
:100DF00043E063E080E00E94590444E063E080E067
:100E00000C94590442E062E081E00E94F50343E063
:100E100062E081E00E94F50345E063E081E00E942A
:100E2000F50342E062E080E00E94590443E062E0A2
:100E300080E00E94590445E063E080E00C9459048E
:100E40000E94E4060E9402070E94E4060E94020734
:100E500043E061E081E00E94F5030E940F050C94DD
:100E60001C05CF93DF938536E8F56430D8F5423022
:100E7000C8F5C42FD62F0E942605D23021F0D330DA
:100E8000B9F0D130A9F044E063E081E00E94590458
:100E900042E063E0C13031F481E00E94590443E054
:100EA00063E014C080E00E94590443E063E015C091
:100EB00045E063E081E00E94590442E062E0C13015
:100EC00039F481E00E94590443E062E080E006C00A
:100ED00080E00E94590443E062E081E0DF91CF911D
:100EE0000C945904DF91CF910895CF93DF93C82FCD
:100EF000D62F462F60E00E9431074D2F62E08C2FE5
:100F0000DF91CF910C943107CF93DF93C82FD62F69
:100F1000462F61E00E9431074D2F63E08C2FDF9157
:100F2000CF910C94310780E00E94C10681E00E94BD
:100F3000C10682E00E94C10683E00C94C1060C94B5
:100F4000930745E062E081E00E94F50346E062E03D
:100F500081E00E94F50347E062E081E00C94F50334
:100F6000863031F0873031F0853049F445E003C0F8
:100F700046E001C047E062E081E00C945904089526
:100F8000863031F0873031F0853049F445E003C0D8
:100F900046E001C047E062E080E00C945904089507
:100FA000CF93DF93D82FC62F0E94F00588E60E94CA
:100FB00013068D2F0E9439068C2F0E9439060E943D
:100FC0000C0685E38A95F1F70000DF91CF91089533
:100FD000CF93DF93D82FC62F0E94F0058CE00E949C
:100FE00013068D2F0E9439068C2F0E9439060E940D
:100FF0000C0685E38A95F1F70000DF91CF91089503
:101000001F93CF93DF931F92CDB7DEB7182F0E94A7
:10101000F0058CE00E941306812F0E9439060E9481
:10102000FE058CE00E942606CE0101960E94550620
:101030000E940C0689810F90DF91CF911F91089536
:101040001F93CF93DF931F92CDB7DEB7182F0E9467
:10105000F00588E60E941306812F0E9439060E943F
:10106000FE0588E60E942606CE0101960E945506DE
:101070000E940C0689810F90DF91CF911F910895F6
:10108000EF92FF921F93CF93DF93D82F7B01C42F52
:101090000E94F00588E60E9413068D2F0E943906F3
:1010A0000E94FE0588E60E94260610E0D0E0219707
:1010B000812F90E08C179D0734F48E0D9F1D0E94A8
:1010C00045061F5FF5CFC7018C0F9D1F0E94550677
:1010D000DF91CF911F91FF90EF900C940C0685E764
:1010E0000E942008982F9D7F81E0913709F080E0D1
:1010F0000895CF93C82F682F660F660F660F8CE197
:101100000E94D007C13079F048F0C23089F0C33076
:10111000D9F480E090E0A0E0B5E40EC080E090E07B
:10112000A0E8B6E409C080E090E0A0E0B6E404C026
:1011300080E090E0A0E8B5E48093640090936500BF
:10114000A0936600B0936700CF910895CF93C82F06
:10115000682F660F660F660F8BE10E94D007C130C3
:1011600079F048F0C23089F0C330D9F483E393E3D7
:10117000A3E8B1E40EC080E090E0A3E0B3E409C0CE
:1011800080E090E0A3E8B2E404C083E393E3A3E04B
:10119000B2E48093600090936100A0936200B093EA
:1011A0006300CF910895873008F086E0682F8AE1C8
:1011B0000C94D007682F89E10C94D0072FEF81EEB3
:1011C00094E0215080409040E1F700C000000E9470
:1011D0006F08882309F47AC060E88BE60E94D00784
:1011E0002FEF81EE94E0215080409040E1F700C065
:1011F000000061E08BE60E94D0078FE39CE9019735
:10120000F1F700C0000060E08CE60E94D0078FE399
:101210009CE90197F1F700C0000080E00E94790886
:1012200080E00E94A60883E00E94D30889E00E9423
:10123000DA0862E087E30E94D0078FE39CE9019718
:10124000F1F700C0000060E08AE60E94D0078FE35B
:101250009CE90197F1F700C0000080E00E940008BF
:101260008834B1F561E08BE00E94E8078FE39CE9E8
:101270000197F1F700C0000060E08AE00E94E807F3
:101280008FE39CE90197F1F700C000006FE08AE06E
:101290000E94E8078FE39CE90197F1F700C0000086
:1012A00060E08AE00E94E8078FE39CE90197F1F78C
:1012B00000C0000066E18AE00E94E8078FE39CE935
:1012C0000197F1F700C0000080E0089583E00895E1
:1012D00084E00895CF93DF93FC011582148213827A
:1012E000128211821082138612861186108617824E
:1012F0001682118A108A1786168615861486138A16
:10130000128A148E158E168E178E108E118E128ED6
:10131000138E148A158A168A178A10A611A612A689
:1013200013A614A215A216A217A210A211A212A20D
:1013300013A214AA15AA16AA17AA10AA11AA12AAC9
:1013400013AA14A615A616A617A610AE11AE12AEB5
:1013500013AEDC01AC5BBF4F1D921D921D921C921F
:10136000139714971D921D921D921C92139714AE01
:1013700015AE16AE17AE50961D921D921D921C9280
:10138000139714971D921D921D921C9213971497F8
:101390001D921D921D921C92139754961D921D92A0
:1013A0001D921C92139714971D921D921D921C92D0
:1013B000139714971D921D921D921C921397549689
:1013C0001D921D921D921C92139714971D921D92AF
:1013D0001D921C92139714971D921D921D921C92A0
:1013E0001397EC01CC58DF4F80E090E0A0E8BFE31A
:1013F00088839983AA83BB83249788839983AA834C
:10140000BB83249788839983AA83BB83DF01A85871
:10141000BF4F85E58C93E758FF4F8AEA8083DF91C1
:10142000CF9108958F929F92AF92BF92CF92DF9209
:10143000EF92FF920F931F93CF93DF9300D000D0D2
:1014400000D0CDB7DEB78C0146E0BE016F5F7F4FA5
:101450008BE30E94400869817A8176276727762787
:10146000F80171836083CB80DC80DC24CD24DC2414
:10147000D382C282ED80FE80FE24EF24FE24F5821A
:10148000E4828090640090906500A0906600B09027
:101490006700072E000C880B990B0E94DB0FA5013B
:1014A00094010E94670F23EC35EF4CE151E40E9458
:1014B000FE10F801E85BFF4F2081318142815381AA
:1014C0000E947E0EF801648B758B868B978BB6011C
:1014D000DD0C880B990B0E94DB0FA50194010E9483
:1014E000670F23EC35EF4CE151E40E94FE10F80148
:1014F000E45BFF4F20813181428153810E947E0E47
:10150000F801608F718F828F938FB701FF0C880B6A
:10151000990B0E94DB0FA50194010E94670F23EC39
:1015200035EF4CE151E40E94FE10F801E05BFF4F03
:1015300020813181428153810E947E0EF801648FA7
:10154000758F868F978F26960FB6F894DEBF0FBEE5
:10155000CDBFDF91CF911F910F91FF90EF90DF9062
:10156000CF90BF90AF909F908F9008958F929F9251
:10157000AF92BF92CF92DF92EF92FF920F931F93A1
:10158000CF93DF9300D000D000D0CDB7DEB78C0171
:1015900046E0BE016F5F7F4F83E40E94400869818F
:1015A0007A81762767277627F80177836683CB8051
:1015B000DC80DC24CD24DC24D186C086ED80FE8056
:1015C000FE24EF24FE24F386E28680906000909053
:1015D0006100A0906200B0906300072E000C880BA1
:1015E000990B0E94DB0FA50194010E94670FF8017F
:1015F000EC5AFF4F20813181428153810E947E0E3F
:10160000F80160A371A382A393A3B601DD0C880B3C
:10161000990B0E94DB0FA50194010E94670FF8014E
:10162000E85AFF4F20813181428153810E947E0E12
:10163000F80164A375A386A397A3B701FF0C880BD9
:10164000990B0E94DB0FA50194010E94670FF8011E
:10165000E45AFF4F20813181428153810E947E0EE6
:10166000F80160A771A782A793A726960FB6F894F2
:10167000DEBF0FBECDBFDF91CF911F910F91FF90C5
:10168000EF90DF90CF90BF90AF909F908F90089594
:10169000CF92DF92EF92FF920F931F93CF93DF933E
:1016A000CDB7DEB727970FB6F894DEBF0FBECDBF1C
:1016B0008C0182E00E94000880FF9BC00E94F00520
:1016C0008CE00E94130683E00E9439060E94FE050A
:1016D0008CE00E942606CE0101967C016E0197E007
:1016E000C90ED11CC701EC14FD0431F00E9445065F
:1016F000EFEFEE1AFE0AF6CF0E9455060E940C0686
:101700008F8183FD76C069817A81F801758764874E
:10171000CB80DC80D786C686ED80FE80F18AE08AA9
:10172000072E000C880B990B0E94DB0F2AE939E980
:1017300049E15FE30E94FE10F801E05AFF4F20816B
:101740003181428153810E947E0EF801E459FF4F9E
:1017500020813181428153810E94FE10F80164A7EB
:1017600075A786A797A7B601DD0C880B990B0E9479
:10177000DB0F2AE939E949E15FE30E94FE10F80135
:10178000EC59FF4F20813181428153810E947E0EAE
:10179000F801E059FF4F20813181428153810E943D
:1017A000FE10F80160AB71AB82AB93ABB701FF0CDD
:1017B000880B990B0E94DB0F2AE939E949E15FE3C5
:1017C0000E94FE10F801E859FF4F208131814281CB
:1017D00053810E947E0EF801EC58FF4F2081318129
:1017E000428153810E94FE10F80164AB75AB86AB59
:1017F00097AB27960FB6F894DEBF0FBECDBFDF9133
:10180000CF911F910F91FF90EF90DF90CF900895AF
:10181000CF93DF9300D0CDB7DEB742E0BE016F5F5C
:101820007F4F81E40E94400869817A81762767278B
:101830007627072E000C880B990B0E94DB0F2CE5F6
:101840003FEE46EA53E40E94670F20E030E048EAAA
:1018500051E40E947F0E0F900F90DF91CF91089579
:10186000FC01248D358D468D578D608D718D828D57
:10187000938D0E94FE0E21EE3EE245E652E40E9468
:10188000FE1008958F929F92AF92BF92CF92DF92F7
:10189000EF92FF92CF93DF93EC01688D798D8A8D63
:1018A0009B8DCC8CDD8CEE8CFF8C9B01AC010E945F
:1018B000FE104B015C01A7019601C701B6010E9411
:1018C000FE109B01AC01C501B4010E947F0E0E9475
:1018D00079119B01AC018C899D89AE89BF89BC01BE
:1018E000CD0190580E94FE0E21EE3EE245E652E404
:1018F0000E94FE10DF91CF91FF90EF90DF90CF908C
:10190000BF90AF909F908F9008954F925F926F928B
:101910007F928F929F92AF92BF92CF92DF92EF927F
:10192000FF92CF93DF93CDB7DEB762970FB6F894EF
:10193000DEBF0FBECDBF9A8B898B25E33AEF4EE811
:101940005CE3DC01DC966D917D918D919C91DF973C
:101950000E94FE104B015C01E989FA89E05CFF4FAF
:1019600025E33AEF4EE85CE36081718182819381E7
:101970000E94FE102B013C01E989FA89C4A4D5A478
:10198000E6A4F7A40E94620F69837A838B839C8309
:10199000A989BA89D4968D919D910D90BC91A02D65
:1019A0008D839E83AF83B887C301B2010E946B1100
:1019B00069877A878B879C87C501B4010E946B1168
:1019C0006D877E878F87988BC501B4010E94620F57
:1019D0002B013C0129813A814B815C81C701B60111
:1019E0000E94FE104B015C0129853A854B855C8580
:1019F0006D817E818F8198850E94FE109B01AC01D4
:101A0000C501B4010E947F0E4B015C01E989FA898E
:101A100020A931A942A953A9C301B2010E94FE1015
:101A20002B013C012D853E854F855889C701B601A4
:101A30000E94FE1029853A854B855C850E94FE1028
:101A40009B01AC01C301B2010E947F0E6B017C01BE
:101A50002D853E854F8558896D817E818F81988542
:101A60000E94FE1029813A814B815C810E94FE1008
:101A70009B01AC01C701B6010E947E0EA501940135
:101A80000E94FE0E21EE3EE245E652E40E94FE1068
:101A90006B017C0120E030E0A9010E945D0F87FF0F
:101AA0000AC020E030E044EB53E4C701B6010E94D5
:101AB0007F0E6B017C01C701B60162960FB6F894E8
:101AC000DEBF0FBECDBFDF91CF91FF90EF90DF90D3
:101AD000CF90BF90AF909F908F907F906F905F90CE
:101AE0004F900895CF93DF93EC010E94300C6CAFC0
:101AF0007DAF8EAF9FAFCE010E94420CFE01E05C35
:101B0000FF4F6083718382839383F996808188235A
:101B100049F0CE010E94850CCC5BDF4F688379834E
:101B20008A839B83DF91CF910895CF93DF93EC015C
:101B30000E94120ACE010E94B60ACE010E94480BF2
:101B40000E94080C68AF79AF8AAF9BAFCE01DF91DE
:101B5000CF910C94720D40E060E081E00E94F503AB
:101B600041E060E081E00E94F50342E060E081E056
:101B70000E94F50343E060E081E00E94F50346E047
:101B800063E080E00C94F503813089F028F0823026
:101B9000C9F0833011F1089540E060E081E00E94D7
:101BA000590485E38A95F1F7000040E020C041E048
:101BB00060E081E00E94590485E38A95F1F7000016
:101BC00041E015C042E060E081E00E94590485E3F5
:101BD0008A95F1F7000042E00AC043E060E081E04E
:101BE0000E94590485E38A95F1F7000043E060E024
:101BF00080E00C945904CF92DF92EF92FF92CF9342
:101C0000DF93EC01F62E0E94A9050E94D1051DBCB0
:101C10001CBC88B7806288BF8F2D0E94C40D80E0F5
:101C20000E94C20580E090E008B605FC06C001965F
:101C3000813523EC9207C1F712C0C6B4D7B488B778
:101C4000806288BF81E00E94C20580E090E008B613
:101C500005FC12C00196813523EC9207C1F780E0A4
:101C600090E0A0E8BFEB88839983AA83BB830E949E
:101C7000DB051DBC1CBC3BC0E6B4F7B488B7806272
:101C800088BF0E94DB051DBC1CBC97012C193D09B7
:101C9000A8E2B7E80E94221220E038E448EE51E0C2
:101CA0000E94FA11CA01B9010E94D90F6B017C018F
:101CB00020E030E040E050E40E945D0F87FD0FC05F
:101CC00020E030E048EC53E4C701B6010E94F11077
:101CD00018162CF0C882D982EA82FB8208C080E004
:101CE00090E0A0E8BFEB88839983AA83BB83DF9150
:101CF000CF91FF90EF90DF90CF9008955058BB2781
:101D0000AA270E94960E0C94A3100E946A1038F025
:101D10000E94711020F039F49F3F19F426F40C94BE
:101D200040100EF4E095E7FB0C943A10E92F0E9466
:101D3000C81058F3BA17620773078407950720F095
:101D400079F4A6F50C94EA100EF4E0950B2EBA2F58
:101D5000A02D0B01B90190010C01CA01A0011124B1
:101D6000FF27591B99F0593F50F4503E68F11A165D
:101D7000F040A22F232F342F4427585FF3CF4695EE
:101D800037952795A795F0405395C9F77EF41F1610
:101D9000BA0B620B730B840BBAF09150A1F0FF0FDA
:101DA000BB1F661F771F881FC2F70EC0BA0F621FC6
:101DB000731F841F48F4879577956795B795F795B6
:101DC0009E3F08F0B0CF9395880F08F09927EE0F4B
:101DD0009795879508950E946A1060F080E891E0D9
:101DE00009F49EEF0E94711028F040E851E071F470
:101DF0005EEF0CC00C9440100C94EA10E92FE078D0
:101E00000E94C81040F3092E052AB1F326173707A0
:101E10004807590738F00E2E07F8E02569F0E0254D
:101E2000E0640AC0EF6307F8009407FADB01B90128
:101E30009D01DC01CA01AD01EF930E947E0F0E945B
:101E4000A3100E942E0F5F91552339F02BED3FE038
:101E500049E450FD49EC0C947F0E0895DF93DD2793
:101E6000B92FBF7740E85FE31616170648075B07F0
:101E700018F4D92F0E94F6109F938F937F936F933E
:101E80000E94B911E2E6F0E00E9443100E94A31004
:101E90002F913F914F915F910E941111DD2351F0DD
:101EA0009058A2EA2AED3FE049EC5FE3D0785D2745
:101EB0000E94960EDF910C94A3100E94161008F455
:101EC00081E008950E947A10E3950C94B4100E946A
:101ED0007B0F0C94A3100E94711058F00E946A109E
:101EE00040F029F45F3F29F00C943A1051110C9402
:101EF000EB100C9440100E94C81068F39923B1F3C2
:101F0000552391F3951B550BBB27AA27621773071F
:101F1000840738F09F5F5F4F220F331F441FAA1FB3
:101F2000A9F335D00E2E3AF0E0E832D0915050406F
:101F3000E695001CCAF72BD0FE2F29D0660F771F1D
:101F4000881FBB1F261737074807AB07B0E809F003
:101F5000BB0B802DBF01FF2793585F4F3AF09E3F88
:101F6000510578F00C943A100C94EB105F3FE4F3B9
:101F7000983ED4F3869577956795B795F7959F5FCB
:101F8000C9F7880F911D9695879597F90895E1E017
:101F9000660F771F881FBB1F621773078407BA0776
:101FA00020F0621B730B840BBA0BEE1F88F7E095D1
:101FB0000895E89409C097FB3EF49095809570953C
:101FC00061957F4F8F4F9F4F9923A9F0F92F96E985
:101FD000BB279395F695879577956795B795F111FA
:101FE000F8CFFAF4BB0F11F460FF1BC06F5F7F4F97
:101FF0008F4F9F4F16C0882311F096E911C07723A9
:1020000021F09EE8872F762F05C0662371F096E8B1
:10201000862F70E060E02AF09A95660F771F881F80
:10202000DAF7880F9695879597F90895990F000824
:10203000550FAA0BE0E8FEEF16161706E807F9079A
:10204000C0F012161306E407F50798F0621B730B35
:10205000840B950B39F40A2661F0232B242B252BB6
:1020600021F408950A2609F4A140A6958FEF811D59
:10207000811D089597F99F6780E870E060E00895FA
:102080009FEF80EC0895DF93CF931F930F93FF9200
:10209000EF92DF927B018C01689406C0DA2EEF018B
:1020A0000E941111FE01E894A59125913591459169
:1020B0005591A6F3EF010E94960EFE019701A8012B
:1020C000DA9469F7DF90EF90FF900F911F91CF9115
:1020D000DF91089500240A941616170618060906BB
:1020E000089500240A94121613061406050608958E
:1020F0000C9440100E94D010D8F3E894E0E0BB2785
:102100009F57F0F02AED3FE049EC06C0EE0FBB0F01
:10211000661F771F881F28F0B23A6207730784078B
:1021200028F0B25A620B730B840BE3959A9572F701
:10213000803830F49A95BB0F661F771F881FD2F73F
:1021400090480C94BF11092E0394000C11F48823BD
:1021500052F0BB0F40F4BF2B11F460FF04C06F5F5F
:102160007F4F8F4F9F4F0895EF93E0FF07C0A2EA84
:102170002AED3FE049EC5FEB0E94960E0E94A3100F
:102180000F90039401FC9058EFE8F0E00C94D2110A
:1021900057FD9058440F551F59F05F3F71F0479518
:1021A000880F97FB991F61F09F3F79F087950895FD
:1021B000121613061406551FF2CF4695F1DF08C01C
:1021C000161617061806991FF1CF86957105610539
:1021D00008940895E894BB2766277727CB0197F9E1
:1021E00008950E94161008F48FEF08959B01AC012A
:1021F00060E070E080E89FE30C94670F0E9411118B
:102200000C94A3100E946A1038F00E94711020F004
:10221000952311F00C943A100C94401011240C9456
:10222000EB100E94C81070F3959FC1F3950F50E01A
:10223000551F629FF001729FBB27F00DB11D639F78
:10224000AA27F00DB11DAA1F649F6627B00DA11D1E
:10225000661F829F2227B00DA11D621F739FB00DC4
:10226000A11D621F839FA00D611D221F749F332734
:10227000A00D611D231F849F600D211D822F762FCD
:102280006A2F11249F5750409AF0F1F088234AF0AA
:10229000EE0FFF1FBB1F661F771F881F9150504016
:1022A000A9F79E3F510580F00C943A100C94EB1066
:1022B0005F3FE4F3983ED4F3869577956795B7959D
:1022C000F795E7959F5FC1F7FE2B880F911D9695B7
:1022D000879597F908959F930E947A100F9007FCB5
:1022E000EE5F0C94B41019F416F40C9440100C9496
:1022F000BD110E94D010B8F39923C9F3B6F39F57CC
:10230000550B87FF0E94CB110024A0E640EA900104
:1023100080585695979528F4805C660F771F881F24
:1023200020F026173707480730F4621B730B840B25
:10233000202931294A2BA695179407942025312569
:102340004A2758F7660F771F881F20F02617370790
:10235000480730F4620B730B840B200D311D411DB7
:10236000A09581F7B901842F9158880F969587958C
:1023700008959B01AC010C94FE109F3F31F09150E9
:1023800020F4879577956795B795880F911D969559
:10239000879597F9089591505040660F771F881FD1
:1023A000D2F708959F938F937F936F93FF93EF934B
:1023B0009B01AC010E94FE10EF91FF910E9443101F
:1023C0002F913F914F915F910C94FE1097FB072E38
:1023D00016F4009407D077FD09D00E94311207FC53
:1023E00005D03EF4909581959F4F08957095619525
:1023F0007F4F0895A1E21A2EAA1BBB1BFD010DC041
:10240000AA1FBB1FEE1FFF1FA217B307E407F507A4
:1024100020F0A21BB30BE40BF50B661F771F881F80
:10242000991F1A9469F760957095809590959B0116
:10243000AC01BD01CF010895EE0FFF1F0590F4918F
:10244000E02D0994A29FB001B39FC001A39F700D1E
:10245000811D1124911DB29F700D811D1124911DAC
:102460000895AA1BBB1B51E107C0AA1FBB1FA617DB
:10247000B70710F0A61BB70B881F991F5A95A9F72D
:0E24800080959095BC01CD010895F894FFCF92
:08248E0000000343000080463A
:00000001FF
